:020000040000FA
:040000000DEF00F010
:0400080024EF0AF0E7
:06001800FF0059EF0CF09F
:10100000000D0A0D0A0D0A0D0A5374617274696E9F
:10101000672050726F6772616D2E2E2E2E0D0A00A2
:10102000507265737320616E79206B657920746FDF
:1010300020746F67676C65204C45440D0A00546F3F
:1010400067676C6564204C454420707265737369F2
:0B1050006E673A202563200D0A0000A7
:10105C0060009BF0D9FF60009FF0DAFF6F007BFF10
:10106C00F6FF6F0077FFF7FFF86A0800F550250AC6
:10107C00D8A443EF08F045EF08F0ECEF08F060005F
:10108C009BF0D9FF60009FF0DAFFDE2A000EDD2214
:10109C00000E506E000E4F6E60003CF153F060007D
:1010AC0040F154F05168526860009BF0D9FF600029
:1010BC009FF0DAFF6F007BFFF6FF6F0077FFF7FF03
:1010CC00F86A0800F550630AD8A46FEF08F071EFC6
:1010DC0008F0A7EF08F060009BF0D9FF60009FF0CC
:1010EC00DAFFDE2A000EDD226000A3F0D9FF6000DB
:1010FC00A7F0DAFF6F007CFF2AF0020EDE266F00ED
:10110C007CFF2BF0000EDD226000ABF0D9FF6000FD
:10111C00AFF0DAFFDF502C6E600090F01FF0600033
:10112C0094F020F06000B0F021F0DDEC0AF06000EB
:10113C007CF024F0600080F025F014EF09F014EF3F
:10114C0009F060009BF0D9FF60009FF0DAFF6F00A0
:10115C007BFFF6FF6F0077FFF7FFF86A0800F5508A
:10116C00250AD8A4BCEF08F0BEEF08F0DBEF08F0BE
:10117C0060009BF0D9FF60009FF0DAFFDE2A000EC2
:10118C00DD22000E056E250E046E600090F006F058
:10119C00600094F007F08CEC09F0000E256E010E47
:1011AC00246E14EF09F014EF09F060009BF0D9FFE6
:1011BC0060009FF0DAFFDE2A000EDD22000E256EA5
:1011CC00000E246E14EF09F014EF09F060009BF090
:1011DC00D9FF60009FF0DAFF6F007BFFF6FF6F0016
:1011EC0077FFF7FFF86A0800F550046E056A600097
:1011FC0090F006F0600094F007F08CEC09F06000C1
:10120C009BF0D9FF60009FF0DAFFDE2A000EDD2292
:10121C00000E256E010E246E14EF09F0120053A07F
:10122C001AEF09F01CEF09F02CEF09F0600058F0F0
:10123C000DF060005CF00EF0600050F00FF06000FC
:10124C0054F010F0B8EC0BF02CEF09F019BE31EFA4
:10125C0009F033EF09F03BEF09F0600060F01DF08E
:10126C00600064F01EF03FEF09F0000E1E6E000EE1
:10127C001D6E000E1C6E000E1B6E55EF09F0000E5D
:10128C00056E200E046E600050F006F0600054F005
:10129C0007F08CEC09F01B4A1C2A55EF09F01D5085
:1012AC001B5C1C50800A1A6E1E50800A1A58D8A05B
:1012BC0062EF09F064EF09F045EF09F053B069EF04
:1012CC0009F06BEF09F07BEF09F0600058F00DF0BE
:1012DC0060005CF00EF0600050F00FF0600054F015
:1012EC0010F0B8EC0BF07BEF09F0600058F002F056
:1012FC0060005CF003F089EC0BF01D500224146EBE
:10130C001E500320156E8BEF09F0120006500710CB
:10131C00D8B493EF09F095EF09F0A0EF09F006505F
:10132C000710D8A49CEF09F09EEF09F0A5EF09F087
:10133C00A0EF09F00450A5EC0CF0E0EF09F020EE62
:10134C0004F00650D9260750DA22DE50DE10D8B44D
:10135C00B2EF09F0B4EF09F0D1EF09F020EE04F090
:10136C000650D9260750DA2210EE02F00650E1267C
:10137C000750E222DE50E65CE650800A0C6EDE502E
:10138C00800A0C58D8B0CDEF09F0CFEF09F0E0EFA0
:10139C0009F0D1EF09F020EE02F00650D9260750E3
:1013AC00DA22DE2A000EDD22E0EF09F0E0EF09F090
:1013BC00E0EF09F012008CEC0CF03F01D29F800E94
:1013CC00026E180E036E9EEC0CF03F01D28F010ED4
:1013DC00356E100E366E09EC0CF0200E356E100EBC
:1013EC00366E09EC0CF0520E0001836F2B0E826FDF
:1013FC00000EE82EFED7822FFCD7832FFAD700F0F1
:10140C0008EF0AF05550D8B40EEF0AF010EF0AF0BE
:10141C0008EF0AF03E0E356E100E366E600054F179
:10142C0037F0386A09EC0CF0000E556E08EF0AF034
:10143C0008EF0AF008EF0AF00DEF00F0390193A95C
:10144C002AEF0AF02CEF0AF042EF0AF0A3A931EFD1
:10145C000AF033EF0AF042EF0AF002D840EF0AF03C
:10146C000500FA6E00018051FD6E8151FE6EFF6A1F
:10147C00FA50120062EF0AF093A747EF0AF049EF17
:10148C000AF062EF0AF0A3A74EEF0AF050EF0AF051
:10149C0062EF0AF002D85CEF0AF00500FA6E5B50BE
:1014AC00FD6E5C50FE6EFF6AFA50120062EF0AF09D
:1014BC0062EF0AF062EF0AF01100390193974C0EBB
:1014CC00026E180E036E9EEC0CF039019399C20E4D
:1014DC00026E170E036E97EC0CF0000E3D01EC6FD4
:1014EC00000EED6F000EEE6F000EEF6F000EF06F42
:1014FC00000EF16FF00EF26F800EF36F000EF46FB2
:10150C00820EF56F060EF66F000EF76F000EF86F79
:10151C00000EF96F000EFA6F000E5A6E000E596E27
:10152C00080E5D6E000E586E000E576E000E566E55
:10153C003901938712006000BCF033F06000C0F0FA
:10154C0034F0000E4E6E000E4D6EC5EF0AF06000CA
:10155C00B4F024F06000B8F025F0330E266E000EC7
:10156C00276E6000C4F028F06000C8F029F02EEC63
:10157C0008F024504D2625504E22C5EF0AF060008D
:10158C00CFF0F6FF6000D3F0F7FFF86A0800F550D3
:10159C000009D8A4D4EF0AF0D6EF0AF0ADEF0AF0A8
:1015AC00600034F12DF0600038F12EF012004F5035
:1015BC005010D8A4E4EF0AF0E6EF0AF0EEEF0AF0D0
:1015CC0060003CF122F0600040F123F0F6EF0AF0ED
:1015DC00FF0E4F24226EFF0E5020236EF6EF0AF002
:1015EC00600084F060F0000E0001616F60007CF020
:1015FC0014F0600080F015F0600E166E000E176E81
:10160C00600088F018F060008CF019F015EC09F00F
:10161C00600050F01FF0600054F020F016EF0BF05B
:10162C001200000E3F01BE6F000EBD6F000EBA6FB0
:10163C00000EBB6F000EBC6F070EC66FC269FE0EAC
:10164C00C36FBF0EC46FC5693A0170697F0E606FBE
:10165C005069070E806F4069000E716F000E816F2C
:10166C00000E516F000E416F000E616F000E826F05
:10167C00000E426F000E526F000E626F000E726F02
:10168C004369536963697369070E836F130E166F91
:10169C00170EE56F1200026E56EF0BF056EF0BF0C3
:1016AC005D50D8B45CEF0BF05EEF0BF056EF0BF027
:1016BC00390193B964EF0BF066EF0BF06BEF0BF0A5
:1016CC0060000BF0EAFD87EF0BF093995A50010D77
:1016DC00450EF324D96E000EF420DA6E60000BF088
:1016EC00DFFF5A2A070E5A647EEF0BF080EF0BF0E7
:1016FC0084EF0BF0000E5A6E84EF0BF05D0687EF53
:10170C000BF093891200600008F006F060000CF0FA
:10171C0007F095EF0BF0024A032A95EF0BF06000EF
:10172C000BF0D9FF60000FF0DAFFDF50D8A4A1EF67
:10173C000BF0A3EF0BF091EF0BF0A5EF0BF06000AB
:10174C0018F004F060001CF005F0041E051E044A9D
:10175C00052A02500424026E03500520036EB7EFD5
:10176C000BF01200000E136E000E126ECEEF0BF08B
:10177C00600044F004F0056A60003CF006F0600084
:10178C0040F007F08CEC09F0124A132ACEEF0BF064
:10179C0012500D24D96E13500E20DA6EDF50116EDC
:1017AC001150D8A4DCEF0BF0DEEF0BF0BEEF0BF01A
:1017BC00E0EF0BF01200080E5D60E7EF0BF0E9EFC5
:1017CC000BF004EF0CF05950010D450EF324D96EBB
:1017DC00000EF420DA6EDF503D01EA6F592A070E35
:1017EC005964FBEF0BF0FDEF0BF001EF0CF0000E6A
:1017FC00596E01EF0CF05D2A08EF0CF0390193994A
:10180C0008EF0CF01200370E3B6E000E3C6E000E13
:10181C002D6E000E2E6E6000D4F02FF06000D8F00C
:10182C0030F03B0E316E000E326EA1EC0AF060000F
:10183C00B4F039F06000B8F03AF025EF0CF012007B
:10184C005850010D3D0EF324D96E000EF420DA6EC3
:10185C006F00A3F7DFFF582A070E586438EF0CF01F
:10186C003AEF0CF03EEF0CF0000E586E3EEF0CF021
:10187C00562A12006F00A0F755F045EF0CF03F010F
:10188C00BBB14BEF0CF04EEF0CF0010E4FEF0CF028
:10189C00000EFF0A016EBB510118FE0B0118BB6F45
:1018AC0058EF0CF0120000EE60F0200EEE6AE80625
:1018BC00FDE100EE3DF01E0EEE6AE806FDE1080EBD
:1018CC00D56E000ED66E000ED76E0001E1EF09F05A
:1018DC00000E3901C06F000EC16F000EC26F000EFA
:1018EC00C36F000EC46F000EC56F000EC66F000EE6
:1018FC00C76F1200600E3901D96F000EDB6F000E3E
:10190C00DD6F080EDF6F000EDE6F1200AAEC0CF01C
:10191C006EEC0CF017EC0BF080EC0CF063EC0AF0B6
:10192C001200600008F080F060000CF081F01200F2
:10193C00600008F05BF060000CF05CF01200036ECD
:0E194C00035051EC0BF012003F01D29B120031
:020000040020DA
:10000000FF0FFF0FFF0FFF0FFF0FFF0FFF0FFF0F80
:020000040030CA
:0A0000008CFFF7FF9FFFFFFFFFFFDB
:00000001FF
