:020000040000FA
:040000000DEF00F010
:04000800BFEF0AF04C
:06001800FF006FEF0BF08A
:10100000000D0A0D0A0D0A0D0A5374617274696E9F
:10101000672050726F6772616D2E2E2E2E0D0A00A2
:10102000507265737320616E79206B657920746FDF
:1010300020746F67676C65204C45440D0A00546F3F
:1010400067676C6564204C454420707265737369F2
:101050006E673A202563200D0A000D0A0D0A4275BD
:1010600074746F6E20507265737365640D0A0000AE
:1010700060009BF0D9FF60009FF0DAFF6F007BFFFC
:10108000F6FF6F0077FFF7FFF86A0800F550250AB2
:10109000D8A494D060009BF0D9FF60009FF0DAFFE5
:1010A000DE2A000EDD22000E4A6E000E496E600040
:1010B00024F14DF0600028F14EF04B684C68600060
:1010C0009BF0D9FF60009FF0DAFF6F007BFFF6FF17
:1010D0006F0077FFF7FFF86A0800F550630AD8A49D
:1010E00033D060009BF0D9FF60009FF0DAFFDE2A6A
:1010F000000EDD226000A3F0D9FF6000A7F0DAFF48
:101100006F007CFF2AF0020EDE266F007CFF2BF0C2
:10111000000EDD226000ABF0D9FF6000AFF0DAFF17
:10112000DF502C6E600090F01FF0600094F020F013
:101130006000B0F021F08FEC0AF060007CF024F049
:10114000600080F025F0120060009BF0D9FF600085
:101150009FF0DAFF6F007BFFF6FF6F0077FFF7FF6E
:10116000F86A0800F550250AD8A41AD060009BF050
:10117000D9FF60009FF0DAFFDE2A000EDD22000EAC
:10118000056E250E046E600090F006F0600094F08D
:1011900007F025EC0AF0000E256E010E246E1200F9
:1011A00060009BF0D9FF60009FF0DAFFDE2A000E9E
:1011B000DD22000E256E000E246E120060009BF0F2
:1011C000D9FF60009FF0DAFF6F007BFFF6FF6F0032
:1011D00077FFF7FFF86A0800F550046E056A6000B3
:1011E00090F006F0600094F007F025EC0AF0600043
:1011F0009BF0D9FF60009FF0DAFFDE2A000EDD22AF
:10120000CAD74DA00ED0600058F00DF060005CF021
:101210000EF0600050F00FF0600054F010F0E9ECB8
:101220000AF019BE07D0600060F01DF0600064F0A5
:101230001EF004D0000E1E6E000E1D6E000E1C6E01
:10124000000E1B6E0ED0000E056E200E046E6000A8
:1012500050F006F0600054F007F025EC0AF01B4A4D
:101260001C2A1D501B5C1C50800A1A6E1E50800ADE
:101270001A58D8A0E8D74DB00ED0600058F00DF045
:1012800060005CF00EF0600050F00FF0600054F071
:1012900010F0E9EC0AF0600058F002F060005CF039
:1012A00003F026EC0BF01D500224146E1E50032098
:1012B000156E1200000EBE6E020EBD6E000EBA6EEE
:1012C000000EBB6E000EBC6E070EC66EC268FA0E34
:1012D000C36EC468C568FE0E3A01706F810E606F00
:1012E000F00E506F070E806F000E406F000E716F92
:1012F000000E816F010E516F000E416F000E616F85
:10130000000E826F000E426F000E526F000E626F71
:10131000000E726F4369536963697369070E836FC7
:10132000579356835593500E026E180E036E14ECAD
:101330000CF03901908F120E3A01D96F130E0A6F1B
:10134000180EDB6F130EDA6F0B0EE56F1200EDEC6B
:101350000BF0D29E9C0E026E170E036E0DEC0CF07D
:10136000D28E010E356E100E366E84EC0BF0200E10
:10137000356E100E366E84EC0BF0520E3E6E2B0E58
:101380003D6E000EE82EFED73D2EFCD73E2EFAD73E
:1013900000D05150D8B40CD03E0E356E100E366EC3
:1013A000600044F137F0386A84EC0BF0000E516EA7
:1013B0004F505010D8B4EDD75A0E356E100E366E11
:1013C00084EC0BF0000E506E000E4F6EE2D7390128
:1013D00093977A0E026E170E036E0DEC0CF0390126
:1013E0009399B00E026E160E036E06EC0CF0000E12
:1013F0003D01EC6F000EED6F000EEE6F000EEF6F13
:10140000000EF06F000EF16FF00EF26F800EF36FB2
:10141000000EF46F820EF56F060EF66F000EF76F7A
:10142000000EF86F000EF96F000EFA6F000E566E88
:10143000000E556E080E5D6E000E546E000E536E5B
:10144000000E526E39019387120006500710D8B46F
:1014500004D006500710D8A404D0045021EC0CF09E
:10146000120020EE04F00650D9260750DA22DE5092
:10147000DE10D8B416D020EE04F00650D92607505E
:10148000DA2210EE02F00650E1260750E222DE508A
:10149000E65CE650800A0C6EDE50800A0C58D8B02C
:1014A000120020EE02F00650D9260750DA22DE2A7A
:1014B000000EDD2212006000BCF033F06000C0F0CE
:1014C00034F0000E486E000E476E16D06000B4F087
:1014D00024F06000B8F025F0330E266E000E276E63
:1014E0006000C4F028F06000C8F029F038EC08F083
:1014F00024504726255048226000CFF0F6FF6000B8
:10150000D3F0F7FFF86A0800F5500009D8A4DED739
:1015100060001CF12DF0600020F12EF01200495007
:101520004A10D8A407D0600024F122F0600028F10E
:1015300023F006D0FF0E4924226EFF0E4A20236EB0
:10154000600084F068F0000E0001696F60007CF0BC
:1015500014F0600080F015F0680E166E000E176E25
:10156000600088F018F060008CF019F001EC09F0D0
:10157000600050F01FF0600054F020F012003901BC
:1015800094BFA4AF03D0DEEC0BF0110093B9A3A974
:101590000BD001D811000500FA6E5950FD6E5A505B
:1015A000FE6EFF6AFA50120093B7A3A70BD001D8C2
:1015B00011000500FA6E5B50FD6E5C50FE6EFF6A16
:1015C000FA50120090AF1100A0AF11001BEC0CF00C
:1015D0001100000E136E000E126E0ED0600044F06B
:1015E00004F0056A60003CF006F0600040F007F08F
:1015F00025EC0AF0124A132A12500D24D96E13500A
:101600000E20DA6EDF50116E1150D8B41200E6D7FA
:10161000026E5D50D8B4FDD7390193B904D0600093
:101620000BF0EAFD11D093993F0E5624D96EDA6A79
:10163000000EDA2260000BF0DFFF562A070E566418
:1016400002D0000E566E5D0693891200600008F00D
:1016500004F060000CF005F002D0024A032A60009A
:101660000BF0D9FF60000FF0DAFFDF50D8A4F5D7F8
:101670000450025C026E05500358036E12000A0EFD
:101680003C01756F000E766F010E776F020E786F5A
:10169000000E796F020E7A6F080E7B6F200E7C6F42
:1016A000000E7D6F920E746F3901A49F948F12000B
:1016B000080E5D6011D03F0E5524D96EDA6A000E17
:1016C000DA22DF503D01EA6F552A070E556402D039
:1016D000000E556E5D2A120039019399120000EE3A
:1016E00060F0280EEE6AE806FDE100EE3FF0180E0D
:1016F000EE6AE806FDE1080ED56E000ED66E000E0D
:10170000D76E0001A7EF09F0370E3B6E000E3C6E5E
:10171000000E2D6E000E2E6E6000D4F02FF06000D3
:10172000D8F030F03B0E316E000E326E5BEC0AF0FA
:101730001200000E3901C06F000EC16F000EC26FA3
:10174000000EC36F000EC46F000EC56F000EC66F93
:10175000000EC76F120057505810D8B40BD001D8E4
:1017600009D00500FA6E5750FD6E5850FE6EFF6AA4
:10177000FA5012003A0157931200600E5424D96EA9
:10178000DA6A000EDA226F00A3F7DFFF542A070E91
:10179000546402D0000E546E522A12006F00A0F75B
:1017A00051F0BBA002D0010E01D0000EFF0A016E65
:1017B000BB500118FE0B0118BB6E1200BBA002D07B
:1017C000010E01D0000EFF0A016EBB500118FE0B86
:1017D0000118BB6E3901A49F120026EC0CF099ECA5
:1017E0000BF05AEC09F0FAEC0BF03FEC0BF0E7ECE5
:1017F00009F01200600E3901D96F000EDB6F000E88
:10180000DD6F080EDF6F000EDE6F1200600008F063
:1018100059F060000CF05AF01200600008F05BF024
:1018200060000CF05CF01200600008F057F06000FF
:101830000CF058F012003A0157A31200ABEC0BF079
:101840001200036E035008EC0BF01200D29A120043
:02185000120084
:020000040020DA
:10000000FF0FFF0FFF0FFF0FFF0FFF0FFF0FFF0F80
:020000040030CA
:0A0000008CFFF7FF9FFFFFFFFFFFDB
:00000001FF
